{
    "_format": "hh-sol-artifact-1",
    "contractName": "Donate",
    "sourceName": "contracts/Donate.sol",
    "abi": [
        {
            "inputs": [],
            "stateMutability": "nonpayable",
            "type": "constructor"
        },
        {
            "inputs": [],
            "name": "getMemos",
            "outputs": [
                {
                    "components": [
                        {
                            "internalType": "string",
                            "name": "name",
                            "type": "string"
                        },
                        {
                            "internalType": "string",
                            "name": "message",
                            "type": "string"
                        },
                        {
                            "internalType": "uint256",
                            "name": "timestamp",
                            "type": "uint256"
                        },
                        {
                            "internalType": "address",
                            "name": "from",
                            "type": "address"
                        },
                        {
                            "internalType": "uint256",
                            "name": "amount",
                            "type": "uint256"
                        }
                    ],
                    "internalType": "struct Donate.Memo[]",
                    "name": "",
                    "type": "tuple[]"
                }
            ],
            "stateMutability": "view",
            "type": "function"
        },
        {
            "inputs": [
                {
                    "internalType": "string",
                    "name": "_name",
                    "type": "string"
                },
                {
                    "internalType": "string",
                    "name": "_message",
                    "type": "string"
                }
            ],
            "name": "pay",
            "outputs": [],
            "stateMutability": "payable",
            "type": "function"
        }
    ],
    "bytecode": "0x608060405234801561001057600080fd5b50336000806101000a81548173ffffffffffffffffffffffffffffffffffffffff021916908373ffffffffffffffffffffffffffffffffffffffff160217905550610b9e806100606000396000f3fe6080604052600436106100295760003560e01c8063865c51721461002e578063f46e588c14610059575b600080fd5b34801561003a57600080fd5b50610043610075565b604051610050919061062a565b60405180910390f35b610073600480360381019061006e9190610795565b610262565b005b60606001805480602002602001604051908101604052809291908181526020016000905b8282101561025957838290600052602060002090600502016040518060a00160405290816000820180546100cc9061083c565b80601f01602080910402602001604051908101604052809291908181526020018280546100f89061083c565b80156101455780601f1061011a57610100808354040283529160200191610145565b820191906000526020600020905b81548152906001019060200180831161012857829003601f168201915b5050505050815260200160018201805461015e9061083c565b80601f016020809104026020016040519081016040528092919081815260200182805461018a9061083c565b80156101d75780601f106101ac576101008083540402835291602001916101d7565b820191906000526020600020905b8154815290600101906020018083116101ba57829003601f168201915b50505050508152602001600282015481526020016003820160009054906101000a900473ffffffffffffffffffffffffffffffffffffffff1673ffffffffffffffffffffffffffffffffffffffff1673ffffffffffffffffffffffffffffffffffffffff16815260200160048201548152505081526020019060010190610099565b50505050905090565b600034116102a5576040517f08c379a000000000000000000000000000000000000000000000000000000000815260040161029c906108ca565b60405180910390fd5b60008054906101000a900473ffffffffffffffffffffffffffffffffffffffff1673ffffffffffffffffffffffffffffffffffffffff166108fc349081150290604051600060405180830381858888f1935050505015801561030b573d6000803e3d6000fd5b5060016040518060a001604052808481526020018381526020014281526020013373ffffffffffffffffffffffffffffffffffffffff16815260200134815250908060018154018082558091505060019003906000526020600020906005020160009091909190915060008201518160000190816103899190610a96565b50602082015181600101908161039f9190610a96565b506040820151816002015560608201518160030160006101000a81548173ffffffffffffffffffffffffffffffffffffffff021916908373ffffffffffffffffffffffffffffffffffffffff1602179055506080820151816004015550505050565b600081519050919050565b600082825260208201905092915050565b6000819050602082019050919050565b600081519050919050565b600082825260208201905092915050565b60005b8381101561046757808201518184015260208101905061044c565b60008484015250505050565b6000601f19601f8301169050919050565b600061048f8261042d565b6104998185610438565b93506104a9818560208601610449565b6104b281610473565b840191505092915050565b6000819050919050565b6104d0816104bd565b82525050565b600073ffffffffffffffffffffffffffffffffffffffff82169050919050565b6000610501826104d6565b9050919050565b610511816104f6565b82525050565b600060a08301600083015184820360008601526105348282610484565b9150506020830151848203602086015261054e8282610484565b915050604083015161056360408601826104c7565b5060608301516105766060860182610508565b50608083015161058960808601826104c7565b508091505092915050565b60006105a08383610517565b905092915050565b6000602082019050919050565b60006105c082610401565b6105ca818561040c565b9350836020820285016105dc8561041d565b8060005b8581101561061857848403895281516105f98582610594565b9450610604836105a8565b925060208a019950506001810190506105e0565b50829750879550505050505092915050565b6000602082019050818103600083015261064481846105b5565b905092915050565b6000604051905090565b600080fd5b600080fd5b600080fd5b600080fd5b7f4e487b7100000000000000000000000000000000000000000000000000000000600052604160045260246000fd5b6106a282610473565b810181811067ffffffffffffffff821117156106c1576106c061066a565b5b80604052505050565b60006106d461064c565b90506106e08282610699565b919050565b600067ffffffffffffffff821115610700576106ff61066a565b5b61070982610473565b9050602081019050919050565b82818337600083830152505050565b6000610738610733846106e5565b6106ca565b90508281526020810184848401111561075457610753610665565b5b61075f848285610716565b509392505050565b600082601f83011261077c5761077b610660565b5b813561078c848260208601610725565b91505092915050565b600080604083850312156107ac576107ab610656565b5b600083013567ffffffffffffffff8111156107ca576107c961065b565b5b6107d685828601610767565b925050602083013567ffffffffffffffff8111156107f7576107f661065b565b5b61080385828601610767565b9150509250929050565b7f4e487b7100000000000000000000000000000000000000000000000000000000600052602260045260246000fd5b6000600282049050600182168061085457607f821691505b6020821081036108675761086661080d565b5b50919050565b600082825260208201905092915050565b7f20706c6561736520706179206d6f7265207468616e2030206574680000000000600082015250565b60006108b4601b8361086d565b91506108bf8261087e565b602082019050919050565b600060208201905081810360008301526108e3816108a7565b9050919050565b60008190508160005260206000209050919050565b60006020601f8301049050919050565b600082821b905092915050565b60006008830261094c7fffffffffffffffffffffffffffffffffffffffffffffffffffffffffffffffff8261090f565b610956868361090f565b95508019841693508086168417925050509392505050565b6000819050919050565b600061099361098e610989846104bd565b61096e565b6104bd565b9050919050565b6000819050919050565b6109ad83610978565b6109c16109b98261099a565b84845461091c565b825550505050565b600090565b6109d66109c9565b6109e18184846109a4565b505050565b5b81811015610a05576109fa6000826109ce565b6001810190506109e7565b5050565b601f821115610a4a57610a1b816108ea565b610a24846108ff565b81016020851015610a33578190505b610a47610a3f856108ff565b8301826109e6565b50505b505050565b600082821c905092915050565b6000610a6d60001984600802610a4f565b1980831691505092915050565b6000610a868383610a5c565b9150826002028217905092915050565b610a9f8261042d565b67ffffffffffffffff811115610ab857610ab761066a565b5b610ac2825461083c565b610acd828285610a09565b600060209050601f831160018114610b005760008415610aee578287015190505b610af88582610a7a565b865550610b60565b601f198416610b0e866108ea565b60005b82811015610b3657848901518255600182019150602085019450602081019050610b11565b86831015610b535784890151610b4f601f891682610a5c565b8355505b6001600288020188555050505b50505050505056fea26469706673582212209dbadcc17296a5d2cf8606c364fa72c844e4765aea95fc52443a8f9e7a5644b364736f6c63430008120033",
    "linkReferences": {},
    "deployedLinkReferences": {}
}